{
  "contractName": "lottery",
  "abi": [
    {
      "inputs": [],
      "stateMutability": "nonpayable",
      "type": "constructor"
    },
    {
      "inputs": [],
      "name": "manager",
      "outputs": [
        {
          "internalType": "address",
          "name": "",
          "type": "address"
        }
      ],
      "stateMutability": "view",
      "type": "function"
    },
    {
      "inputs": [
        {
          "internalType": "uint256",
          "name": "",
          "type": "uint256"
        }
      ],
      "name": "participants",
      "outputs": [
        {
          "internalType": "address payable",
          "name": "",
          "type": "address"
        }
      ],
      "stateMutability": "view",
      "type": "function"
    },
    {
      "stateMutability": "payable",
      "type": "receive"
    },
    {
      "inputs": [],
      "name": "getbalance",
      "outputs": [
        {
          "internalType": "uint256",
          "name": "",
          "type": "uint256"
        }
      ],
      "stateMutability": "view",
      "type": "function"
    },
    {
      "inputs": [],
      "name": "random",
      "outputs": [
        {
          "internalType": "uint256",
          "name": "",
          "type": "uint256"
        }
      ],
      "stateMutability": "view",
      "type": "function"
    },
    {
      "inputs": [],
      "name": "selectWinner",
      "outputs": [],
      "stateMutability": "nonpayable",
      "type": "function"
    },
    {
      "inputs": [],
      "name": "allParticipants",
      "outputs": [
        {
          "internalType": "address payable[]",
          "name": "",
          "type": "address[]"
        }
      ],
      "stateMutability": "view",
      "type": "function"
    }
  ],
  "bytecode": "0x608060405234801561001057600080fd5b50336000806101000a81548173ffffffffffffffffffffffffffffffffffffffff021916908373ffffffffffffffffffffffffffffffffffffffff1602179055506108de806100606000396000f3fe6080604052600436106100595760003560e01c806333a99e04146100db57806335c1d349146100f2578063481c6a751461012f5780634d9b3d5d1461015a5780634f63c903146101855780635ec01e4d146101b0576100d6565b366100d657671bc16d674ec80000341461007257600080fd5b6001339080600181540180825580915050600190039060005260206000200160009091909190916101000a81548173ffffffffffffffffffffffffffffffffffffffff021916908373ffffffffffffffffffffffffffffffffffffffff1602179055005b600080fd5b3480156100e757600080fd5b506100f06101db565b005b3480156100fe57600080fd5b50610119600480360381019061011491906105ce565b610362565b604051610126919061063c565b60405180910390f35b34801561013b57600080fd5b506101446103a1565b6040516101519190610678565b60405180910390f35b34801561016657600080fd5b5061016f6103c5565b60405161017c91906106a2565b60405180910390f35b34801561019157600080fd5b5061019a610426565b6040516101a7919061077b565b60405180910390f35b3480156101bc57600080fd5b506101c56104b4565b6040516101d291906106a2565b60405180910390f35b60008054906101000a900473ffffffffffffffffffffffffffffffffffffffff1673ffffffffffffffffffffffffffffffffffffffff163373ffffffffffffffffffffffffffffffffffffffff161461023357600080fd5b6003600180549050101561024657600080fd5b60006102506104b4565b905060006001805490509050600080828461026b91906107cc565b905060018181548110610281576102806107fd565b5b9060005260206000200160009054906101000a900473ffffffffffffffffffffffffffffffffffffffff1691508173ffffffffffffffffffffffffffffffffffffffff166108fc6102d06103c5565b9081150290604051600060405180830381858888f193505050501580156102fb573d6000803e3d6000fd5b50600067ffffffffffffffff8111156103175761031661082c565b5b6040519080825280602002602001820160405280156103455781602001602082028036833780820191505090505b506001908051906020019061035b9291906104ec565b5050505050565b6001818154811061037257600080fd5b906000526020600020016000915054906101000a900473ffffffffffffffffffffffffffffffffffffffff1681565b60008054906101000a900473ffffffffffffffffffffffffffffffffffffffff1681565b60008060009054906101000a900473ffffffffffffffffffffffffffffffffffffffff1673ffffffffffffffffffffffffffffffffffffffff163373ffffffffffffffffffffffffffffffffffffffff161461042057600080fd5b47905090565b606060018054806020026020016040519081016040528092919081815260200182805480156104aa57602002820191906000526020600020905b8160009054906101000a900473ffffffffffffffffffffffffffffffffffffffff1673ffffffffffffffffffffffffffffffffffffffff1681526020019060010190808311610460575b5050505050905090565b6000426001805490506040516020016104ce92919061087c565b6040516020818303038152906040528051906020012060001c905090565b828054828255906000526020600020908101928215610565579160200282015b828111156105645782518260006101000a81548173ffffffffffffffffffffffffffffffffffffffff021916908373ffffffffffffffffffffffffffffffffffffffff1602179055509160200191906001019061050c565b5b5090506105729190610576565b5090565b5b8082111561058f576000816000905550600101610577565b5090565b600080fd5b6000819050919050565b6105ab81610598565b81146105b657600080fd5b50565b6000813590506105c8816105a2565b92915050565b6000602082840312156105e4576105e3610593565b5b60006105f2848285016105b9565b91505092915050565b600073ffffffffffffffffffffffffffffffffffffffff82169050919050565b6000610626826105fb565b9050919050565b6106368161061b565b82525050565b6000602082019050610651600083018461062d565b92915050565b6000610662826105fb565b9050919050565b61067281610657565b82525050565b600060208201905061068d6000830184610669565b92915050565b61069c81610598565b82525050565b60006020820190506106b76000830184610693565b92915050565b600081519050919050565b600082825260208201905092915050565b6000819050602082019050919050565b6106f28161061b565b82525050565b600061070483836106e9565b60208301905092915050565b6000602082019050919050565b6000610728826106bd565b61073281856106c8565b935061073d836106d9565b8060005b8381101561076e57815161075588826106f8565b975061076083610710565b925050600181019050610741565b5085935050505092915050565b60006020820190508181036000830152610795818461071d565b905092915050565b7f4e487b7100000000000000000000000000000000000000000000000000000000600052601260045260246000fd5b60006107d782610598565b91506107e283610598565b9250826107f2576107f161079d565b5b828206905092915050565b7f4e487b7100000000000000000000000000000000000000000000000000000000600052603260045260246000fd5b7f4e487b7100000000000000000000000000000000000000000000000000000000600052604160045260246000fd5b6000819050919050565b61087661087182610598565b61085b565b82525050565b60006108888285610865565b6020820191506108988284610865565b602082019150819050939250505056fea264697066735822122013bf3e4b6a610d0c014a5dd8ea3183cd7965a2292e5495d53c9ca43c76b13e3f64736f6c63430008110033",
  "immutableReferences": {},
  "source": "\r\n// SPDX-License-Identifier: GPL-3.0\r\npragma solidity >=0.7.0 <0.9.0;\r\n\r\ncontract lottery{\r\n    address public manager;\r\n    address payable[] public participants;\r\n\r\n//In the starting of contract we inform that manager has the control of contract by giving the address of contract.\r\n    constructor()  \r\n    {\r\n        manager = msg.sender;  //Every smart contract invocation has a caller address. Each EVM (Ethereum Virtual Machine that executes the code) knows which account carries out each action. In Solidity, you can access the calling account by referencing msg.sender So when you call a function of solidity contract, your contract already gets the information of your account, so your account is the msg.sender\r\n    }\r\n\r\n    receive() external payable //this is special inbuilt func. used to get ether from participants in contract mostly used with external keyword and it is always payable and it has no parameters\r\n    {\r\n         //this is like if statemenet below code is executed if require statement is true.\r\n        require(msg.value == 2 ether);\r\n        participants.push(payable(msg.sender));\r\n    }\r\n    function getbalance() public view returns(uint) {\r\n        require(msg.sender == manager);\r\n        return address(this).balance;\r\n    }\r\n    //https://ethereum.stackexchange.com/questions/11572/how-does-the-keccak256-hash-function-work/45585,\r\n    function random() public view returns(uint){\r\n        return uint(keccak256(abi.encodePacked(block.timestamp, participants.length))); //this hash function is used to generate random from participants it is converted to uint. It is not usually used\r\n    }\r\n    //we use the logic that we take modulo of random generated value with lenth of participants since on taking the moduo the number generated will lie from 0-lengthOfParticipants.\r\n    function selectWinner() public {\r\n        require(msg.sender == manager);\r\n        require(participants.length >= 3);\r\n\r\n        uint rand = random();\r\n        uint len = participants.length;\r\n        address payable winner;\r\n        uint index = rand%len;\r\n        winner = participants[index];\r\n        winner.transfer(getbalance());\r\n        participants = new address payable[](0); //reseting the participants array\r\n    }\r\n\r\n    function allParticipants() view public returns (address payable[] memory) {\r\n        return  participants;\r\n    }\r\n}",
  "sourcePath": "F:\\Blockchain\\LotteryApplication\\SmartContract\\contracts\\main.sol",
  "compiler": {
    "name": "solc",
    "version": "0.8.17+commit.8df45f5f.Emscripten.clang"
  },
  "schemaVersion": "3.4.11",
  "updatedAt": "2023-02-26T12:39:14.219Z",
  "devdoc": {
    "kind": "dev",
    "methods": {},
    "version": 1
  },
  "userdoc": {
    "kind": "user",
    "methods": {},
    "version": 1
  }
}